{
  "contractName": "RegisterData",
  "abi": [
    {
      "anonymous": false,
      "inputs": [
        {
          "indexed": false,
          "internalType": "uint256",
          "name": "num",
          "type": "uint256"
        },
        {
          "indexed": false,
          "internalType": "uint256",
          "name": "bcid",
          "type": "uint256"
        },
        {
          "indexed": false,
          "internalType": "bytes",
          "name": "enKey",
          "type": "bytes"
        },
        {
          "indexed": false,
          "internalType": "bytes",
          "name": "cveHash",
          "type": "bytes"
        },
        {
          "indexed": false,
          "internalType": "bytes",
          "name": "enHash",
          "type": "bytes"
        }
      ],
      "name": "NewDataSet",
      "type": "event"
    },
    {
      "constant": true,
      "inputs": [
        {
          "internalType": "address",
          "name": "",
          "type": "address"
        },
        {
          "internalType": "uint256",
          "name": "",
          "type": "uint256"
        }
      ],
      "name": "addressToBcid",
      "outputs": [
        {
          "internalType": "uint256",
          "name": "",
          "type": "uint256"
        }
      ],
      "payable": false,
      "stateMutability": "view",
      "type": "function"
    },
    {
      "constant": true,
      "inputs": [
        {
          "internalType": "uint256",
          "name": "",
          "type": "uint256"
        }
      ],
      "name": "imageToOwner",
      "outputs": [
        {
          "internalType": "address",
          "name": "",
          "type": "address"
        }
      ],
      "payable": false,
      "stateMutability": "view",
      "type": "function"
    },
    {
      "constant": false,
      "inputs": [
        {
          "internalType": "uint256",
          "name": "bcid",
          "type": "uint256"
        },
        {
          "internalType": "bytes",
          "name": "enKey",
          "type": "bytes"
        },
        {
          "internalType": "bytes",
          "name": "enHash",
          "type": "bytes"
        },
        {
          "internalType": "bytes",
          "name": "enCVE",
          "type": "bytes"
        }
      ],
      "name": "setDockerImageData",
      "outputs": [],
      "payable": false,
      "stateMutability": "nonpayable",
      "type": "function"
    },
    {
      "constant": true,
      "inputs": [],
      "name": "getNum",
      "outputs": [
        {
          "internalType": "uint256[]",
          "name": "",
          "type": "uint256[]"
        }
      ],
      "payable": false,
      "stateMutability": "view",
      "type": "function"
    },
    {
      "constant": true,
      "inputs": [
        {
          "internalType": "uint256",
          "name": "num",
          "type": "uint256"
        }
      ],
      "name": "getBCID",
      "outputs": [
        {
          "internalType": "uint256",
          "name": "",
          "type": "uint256"
        }
      ],
      "payable": false,
      "stateMutability": "view",
      "type": "function"
    },
    {
      "constant": true,
      "inputs": [
        {
          "internalType": "uint256",
          "name": "num",
          "type": "uint256"
        }
      ],
      "name": "getEnKey",
      "outputs": [
        {
          "internalType": "bytes",
          "name": "",
          "type": "bytes"
        }
      ],
      "payable": false,
      "stateMutability": "view",
      "type": "function"
    },
    {
      "constant": true,
      "inputs": [
        {
          "internalType": "uint256",
          "name": "num",
          "type": "uint256"
        }
      ],
      "name": "getEnHash",
      "outputs": [
        {
          "internalType": "bytes",
          "name": "",
          "type": "bytes"
        }
      ],
      "payable": false,
      "stateMutability": "view",
      "type": "function"
    },
    {
      "constant": true,
      "inputs": [
        {
          "internalType": "uint256",
          "name": "num",
          "type": "uint256"
        }
      ],
      "name": "getEnCVE",
      "outputs": [
        {
          "internalType": "bytes",
          "name": "",
          "type": "bytes"
        }
      ],
      "payable": false,
      "stateMutability": "view",
      "type": "function"
    }
  ],
  "bytecode": "0x608060405234801561001057600080fd5b50610d30806100206000396000f3fe608060405234801561001057600080fd5b50600436106100885760003560e01c806367e0badb1161005b57806367e0badb146103d75780637809da4f14610436578063b5f30f0a146104dd578063d9a41e881461053f57610088565b806314629afe1461008d578063322aab34146100cf5780633391257f146102c25780634294765714610369575b600080fd5b6100b9600480360360208110156100a357600080fd5b81019080803590602001909291905050506105e6565b6040518082815260200191505060405180910390f35b6102c0600480360360808110156100e557600080fd5b81019080803590602001909291908035906020019064010000000081111561010c57600080fd5b82018360208201111561011e57600080fd5b8035906020019184600183028401116401000000008311171561014057600080fd5b91908080601f016020809104026020016040519081016040528093929190818152602001838380828437600081840152601f19601f820116905080830192505050505050509192919290803590602001906401000000008111156101a357600080fd5b8201836020820111156101b557600080fd5b803590602001918460018302840111640100000000831117156101d757600080fd5b91908080601f016020809104026020016040519081016040528093929190818152602001838380828437600081840152601f19601f8201169050808301925050505050505091929192908035906020019064010000000081111561023a57600080fd5b82018360208201111561024c57600080fd5b8035906020019184600183028401116401000000008311171561026e57600080fd5b91908080601f016020809104026020016040519081016040528093929190818152602001838380828437600081840152601f19601f82011690508083019250505050505050919291929050505061060d565b005b6102ee600480360360208110156102d857600080fd5b8101908080359060200190929190505050610920565b6040518080602001828103825283818151815260200191508051906020019080838360005b8381101561032e578082015181840152602081019050610313565b50505050905090810190601f16801561035b5780820380516001836020036101000a031916815260200191505b509250505060405180910390f35b6103956004803603602081101561037f57600080fd5b81019080803590602001909291905050506109e0565b604051808273ffffffffffffffffffffffffffffffffffffffff1673ffffffffffffffffffffffffffffffffffffffff16815260200191505060405180910390f35b6103df610a13565b6040518080602001828103825283818151815260200191508051906020019060200280838360005b83811015610422578082015181840152602081019050610407565b505050509050019250505060405180910390f35b6104626004803603602081101561044c57600080fd5b8101908080359060200190929190505050610aa8565b6040518080602001828103825283818151815260200191508051906020019080838360005b838110156104a2578082015181840152602081019050610487565b50505050905090810190601f1680156104cf5780820380516001836020036101000a031916815260200191505b509250505060405180910390f35b610529600480360360408110156104f357600080fd5b81019080803573ffffffffffffffffffffffffffffffffffffffff16906020019092919080359060200190929190505050610b68565b6040518082815260200191505060405180910390f35b61056b6004803603602081101561055557600080fd5b8101908080359060200190929190505050610b96565b6040518080602001828103825283818151815260200191508051906020019080838360005b838110156105ab578082015181840152602081019050610590565b50505050905090810190601f1680156105d85780820380516001836020036101000a031916815260200191505b509250505060405180910390f35b60008082815481106105f457fe5b9060005260206000209060050201600101549050919050565b60008080549050905060006040518060a0016040528083815260200187815260200186815260200184815260200185815250908060018154018082558091505090600182039060005260206000209060050201600090919290919091506000820151816000015560208201518160010155604082015181600201908051906020019061069a929190610c56565b5060608201518160030190805190602001906106b7929190610c56565b5060808201518160040190805190602001906106d4929190610c56565b50505050336001600083815260200190815260200160002060006101000a81548173ffffffffffffffffffffffffffffffffffffffff021916908373ffffffffffffffffffffffffffffffffffffffff1602179055507fbd0ecdfa452b489f4cdeea99c3328dd6d4c8c15bd79b1da7be9bd9ca295eaba6818686858760405180868152602001858152602001806020018060200180602001848103845287818151815260200191508051906020019080838360005b838110156107a4578082015181840152602081019050610789565b50505050905090810190601f1680156107d15780820380516001836020036101000a031916815260200191505b50848103835286818151815260200191508051906020019080838360005b8381101561080a5780820151818401526020810190506107ef565b50505050905090810190601f1680156108375780820380516001836020036101000a031916815260200191505b50848103825285818151815260200191508051906020019080838360005b83811015610870578082015181840152602081019050610855565b50505050905090810190601f16801561089d5780820380516001836020036101000a031916815260200191505b509850505050505050505060405180910390a1600260003373ffffffffffffffffffffffffffffffffffffffff1673ffffffffffffffffffffffffffffffffffffffff1681526020019081526020016000208190806001815401808255809150509060018203906000526020600020016000909192909190915055505050505050565b60606000828154811061092f57fe5b90600052602060002090600502016003018054600181600116156101000203166002900480601f0160208091040260200160405190810160405280929190818152602001828054600181600116156101000203166002900480156109d45780601f106109a9576101008083540402835291602001916109d4565b820191906000526020600020905b8154815290600101906020018083116109b757829003601f168201915b50505050509050919050565b60016020528060005260406000206000915054906101000a900473ffffffffffffffffffffffffffffffffffffffff1681565b6060600260003373ffffffffffffffffffffffffffffffffffffffff1673ffffffffffffffffffffffffffffffffffffffff168152602001908152602001600020805480602002602001604051908101604052809291908181526020018280548015610a9e57602002820191906000526020600020905b815481526020019060010190808311610a8a575b5050505050905090565b606060008281548110610ab757fe5b90600052602060002090600502016002018054600181600116156101000203166002900480601f016020809104026020016040519081016040528092919081815260200182805460018160011615610100020316600290048015610b5c5780601f10610b3157610100808354040283529160200191610b5c565b820191906000526020600020905b815481529060010190602001808311610b3f57829003601f168201915b50505050509050919050565b60026020528160005260406000208181548110610b8157fe5b90600052602060002001600091509150505481565b606060008281548110610ba557fe5b90600052602060002090600502016004018054600181600116156101000203166002900480601f016020809104026020016040519081016040528092919081815260200182805460018160011615610100020316600290048015610c4a5780601f10610c1f57610100808354040283529160200191610c4a565b820191906000526020600020905b815481529060010190602001808311610c2d57829003601f168201915b50505050509050919050565b828054600181600116156101000203166002900490600052602060002090601f016020900481019282601f10610c9757805160ff1916838001178555610cc5565b82800160010185558215610cc5579182015b82811115610cc4578251825591602001919060010190610ca9565b5b509050610cd29190610cd6565b5090565b610cf891905b80821115610cf4576000816000905550600101610cdc565b5090565b9056fea265627a7a72315820c83e06846a966d3045df39e2066d63404c9c9d29734d61181c716d3575efd79664736f6c63430005100032",
  "source": "//SPDX-License-Identifier: UNLICENSED\npragma solidity >=0.4.19 <0.9.0;\n\n// contract address\n\ncontract RegisterData   {\n\n    struct dockerData {\n        uint num ;\n        uint bcid ;\n        bytes enKey;\n        bytes enCVEHash ;\n        bytes enHash;\n    }\n\n    event NewDataSet( uint num , uint bcid , bytes enKey ,bytes cveHash, bytes enHash);\n    dockerData[] private dockerDatas ;\n\n    mapping (uint => address) public imageToOwner;\n    mapping (address => uint[]) public addressToBcid;\n\n    // 도커 이미지 소유권 보장 및 데이터 저장\n    function setDockerImageData( uint bcid , bytes memory enKey , bytes memory enHash , bytes memory enCVE )public{\n        uint num = dockerDatas.length;\n        dockerDatas.push(dockerData( num ,bcid , enKey, enCVE , enHash));\n        imageToOwner[num] = msg.sender;\n        emit NewDataSet(num,bcid,enKey ,enCVE, enHash);\n        addressToBcid[msg.sender].push(num);\n        // push 가 더 이상 숫자를 돌려주지 않기 때문에 길이에 - 1\n    }\n    // 사용자의 주소를 통해서 가지고 있는 BCID 를 가지고 온다.\n    function getNum() view public returns( uint[] memory){\n        return addressToBcid[msg.sender];\n    }\n    // BCID 를 돌려준다.\n    function getBCID(uint num) view public returns(uint ) {\n        return dockerDatas[num].bcid;\n    }\n    // BCID 를 통해 암호화된 키를 가지고 온다.\n    function getEnKey(uint num) view public returns(bytes memory) {\n        return dockerDatas[num].enKey;\n    }\n    // BCID 를 통해 암호화된 해시값을 가지고 온다.\n    function getEnHash(uint num) view public returns(bytes memory) {\n        return dockerDatas[num].enHash;\n    }\n    function getEnCVE( uint num) view public returns(bytes memory){\n        return dockerDatas[num].enCVEHash;\n    }\n\n\n}\n",
  "sourcePath": "/Users/Chan_Yu/go/src/prototype1.0.0/contracts/RegisterData.sol",
  "compiler": {
    "name": "solc",
    "version": "0.5.16+commit.9c3226ce.Emscripten.clang"
  },
  "schemaVersion": "3.3.4",
  "updatedAt": "2021-05-05T13:45:46.541Z",
  "networkType": "ethereum",
  "devdoc": {
    "methods": {}
  },
  "userdoc": {
    "methods": {}
  }
}